{
  "_format": "hh-sol-artifact-1",
  "contractName": "FrankensteinDAO",
  "sourceName": "contracts/FrankensteinDAO.sol",
  "abi": [
    {
      "inputs": [
        {
          "internalType": "contract IFocusPool",
          "name": "_pool",
          "type": "address"
        }
      ],
      "stateMutability": "nonpayable",
      "type": "constructor"
    },
    {
      "inputs": [
        {
          "internalType": "uint256",
          "name": "proposalId",
          "type": "uint256"
        }
      ],
      "name": "execute",
      "outputs": [],
      "stateMutability": "nonpayable",
      "type": "function"
    },
    {
      "inputs": [
        {
          "internalType": "uint256",
          "name": "proposalId",
          "type": "uint256"
        }
      ],
      "name": "getProposal",
      "outputs": [
        {
          "internalType": "uint8",
          "name": "op",
          "type": "uint8"
        },
        {
          "internalType": "uint256",
          "name": "p0",
          "type": "uint256"
        },
        {
          "internalType": "uint256",
          "name": "p1",
          "type": "uint256"
        },
        {
          "internalType": "uint256",
          "name": "yesVotes",
          "type": "uint256"
        },
        {
          "internalType": "uint256",
          "name": "deadlineBlock",
          "type": "uint256"
        },
        {
          "internalType": "uint256",
          "name": "iVoted",
          "type": "uint256"
        }
      ],
      "stateMutability": "view",
      "type": "function"
    },
    {
      "inputs": [
        {
          "internalType": "uint256",
          "name": "ord",
          "type": "uint256"
        }
      ],
      "name": "getProposalId",
      "outputs": [
        {
          "internalType": "uint256",
          "name": "",
          "type": "uint256"
        }
      ],
      "stateMutability": "view",
      "type": "function"
    },
    {
      "inputs": [],
      "name": "numProposals",
      "outputs": [
        {
          "internalType": "uint256",
          "name": "",
          "type": "uint256"
        }
      ],
      "stateMutability": "view",
      "type": "function"
    },
    {
      "inputs": [],
      "name": "pool",
      "outputs": [
        {
          "internalType": "contract IFocusPool",
          "name": "",
          "type": "address"
        }
      ],
      "stateMutability": "view",
      "type": "function"
    },
    {
      "inputs": [
        {
          "internalType": "uint256",
          "name": "",
          "type": "uint256"
        }
      ],
      "name": "proposalIdList",
      "outputs": [
        {
          "internalType": "uint256",
          "name": "",
          "type": "uint256"
        }
      ],
      "stateMutability": "view",
      "type": "function"
    },
    {
      "inputs": [
        {
          "internalType": "uint8",
          "name": "op",
          "type": "uint8"
        },
        {
          "internalType": "uint256",
          "name": "deadlineBlock",
          "type": "uint256"
        },
        {
          "internalType": "uint256[]",
          "name": "parameters",
          "type": "uint256[]"
        }
      ],
      "name": "propose",
      "outputs": [
        {
          "internalType": "uint256",
          "name": "proposalId",
          "type": "uint256"
        }
      ],
      "stateMutability": "nonpayable",
      "type": "function"
    },
    {
      "inputs": [
        {
          "internalType": "uint16",
          "name": "_fee",
          "type": "uint16"
        }
      ],
      "name": "setPoolSwapFee",
      "outputs": [],
      "stateMutability": "nonpayable",
      "type": "function"
    },
    {
      "inputs": [
        {
          "internalType": "uint256",
          "name": "_priceShiftFactor",
          "type": "uint256"
        }
      ],
      "name": "shiftPoolRange",
      "outputs": [],
      "stateMutability": "nonpayable",
      "type": "function"
    },
    {
      "inputs": [
        {
          "internalType": "uint256",
          "name": "proposalId",
          "type": "uint256"
        },
        {
          "internalType": "bool",
          "name": "voteYes",
          "type": "bool"
        }
      ],
      "name": "vote",
      "outputs": [],
      "stateMutability": "nonpayable",
      "type": "function"
    },
    {
      "inputs": [
        {
          "internalType": "uint256",
          "name": "_priceZoomFactor",
          "type": "uint256"
        }
      ],
      "name": "zoomPoolRange",
      "outputs": [],
      "stateMutability": "nonpayable",
      "type": "function"
    }
  ],
  "bytecode": "0x608060405234801561001057600080fd5b5060405161164338038061164383398101604081905261002f91610054565b600080546001600160a01b0319166001600160a01b0392909216919091179055610084565b60006020828403121561006657600080fd5b81516001600160a01b038116811461007d57600080fd5b9392505050565b6115b0806100936000396000f3fe608060405234801561001057600080fd5b50600436106100a95760003560e01c806391f43c5c1161007157806391f43c5c1461012f578063c7f758a814610142578063c9d27afe14610186578063dccc546814610199578063e804e205146101ac578063fe0d94c1146101bf57600080fd5b80631142f15c146100ae57806316f0115b146100d4578063400e3949146100ff578063402bff2a146101075780637c95ac271461011c575b600080fd5b6100c16100bc3660046112c5565b6101d2565b6040519081526020015b60405180910390f35b6000546100e7906001600160a01b031681565b6040516001600160a01b0390911681526020016100cb565b6001546100c1565b61011a6101153660046112c5565b6101f3565b005b6100c161012a3660046112c5565b610288565b61011a61013d3660046112c5565b6102af565b6101556101503660046112c5565b61030a565b6040805160ff90971687526020870195909552938501929092526060840152608083015260a082015260c0016100cb565b61011a6101943660046112de565b6103e3565b6100c16101a7366004611329565b6106e9565b61011a6101ba36600461140b565b610a81565b61011a6101cd3660046112c5565b610adf565b600181815481106101e257600080fd5b600091825260209091200154905081565b6004546001600160a01b031633146102265760405162461bcd60e51b815260040161021d9061142f565b60405180910390fd5b60005460405163d020aa7360e01b8152600481018390526001600160a01b039091169063d020aa73906024015b600060405180830381600087803b15801561026d57600080fd5b505af1158015610281573d6000803e3d6000fd5b5050505050565b60006001828154811061029d5761029d611472565b90600052602060002001549050919050565b6004546001600160a01b031633146102d95760405162461bcd60e51b815260040161021d9061142f565b60005460405163361d649f60e21b8152600481018390526001600160a01b039091169063d875927c90602401610253565b600081815260026020526040812080546001909101805460ff90921692918291829182918291829061033e5761033e611472565b9060005260206000200154945060016002600089815260200190815260200160002060010180549050116103735760006103a7565b6002600088815260200190815260200160002060010160018154811061039b5761039b611472565b90600052602060002001545b6000978852600260208181526040808b20928301546003840154338d526004909401909252909920549799969891979196909550909350915050565b6000828152600260205260409020600301546104115760405162461bcd60e51b815260040161021d90611488565b600080546040516370a0823160e01b81523360048201526001600160a01b03909116906370a082319060240160206040518083038186803b15801561045557600080fd5b505afa158015610469573d6000803e3d6000fd5b505050506040513d601f19601f8201168201806040525081019061048d91906114c9565b116104da5760405162461bcd60e51b815260206004820152601d60248201527f4672616e6b656e737465696e44414f3a204e4f545f415f4d454d424552000000604482015260640161021d565b60008281526002602052604090206003015443111561053b5760405162461bcd60e51b815260206004820152601960248201527f4672616e6b656e737465696e44414f3a20544f4f5f4c41544500000000000000604482015260640161021d565b6000828152600260209081526040808320338452600401909152902054156105a55760405162461bcd60e51b815260206004820152601e60248201527f4672616e6b656e737465696e44414f3a20414c52454144595f564f5445440000604482015260640161021d565b6000546040516370a0823160e01b81523360048201526001600160a01b03909116906370a082319060240160206040518083038186803b1580156105e857600080fd5b505afa1580156105fc573d6000803e3d6000fd5b505050506040513d601f19601f8201168201806040525081019061062091906114c9565b600083815260026020908152604080832033845260040190915290205580156106e5576000546040516370a0823160e01b81523360048201526001600160a01b03909116906370a082319060240160206040518083038186803b15801561068657600080fd5b505afa15801561069a573d6000803e3d6000fd5b505050506040513d601f19601f820116820180604052508101906106be91906114c9565b600083815260026020819052604082200180549091906106df9084906114f8565b90915550505b5050565b600080546040516370a0823160e01b815233600482015282916001600160a01b0316906370a082319060240160206040518083038186803b15801561072d57600080fd5b505afa158015610741573d6000803e3d6000fd5b505050506040513d601f19601f8201168201806040525081019061076591906114c9565b116107b25760405162461bcd60e51b815260206004820152601d60248201527f4672616e6b656e737465696e44414f3a204e4f545f415f4d454d424552000000604482015260640161021d565b600380549060006107c283611510565b909155506001805480820182556000919091527fb10e2d527612073b26eecdfd717e6a320cf44b4afac2b0732d9fcbe2b7fa0cf601819055905060ff8416610864576000818152600260205260408120805460ff191681558351600190910191849161083057610830611472565b6020908102919091018101518254600181018455600093845282842001558282526002905260409020600301839055610a7a565b8360ff166001141561089e576000818152600260205260408120805460ff1916600190811782558451910191849161083057610830611472565b8360ff16600214156108db5760008181526002602081905260408220805460ff191690911781558351600190910191849161083057610830611472565b8360ff1660031415610a0f576000818152600260205260408120805460ff191660031781558351600190910191849161091657610916611472565b602090810291909101810151825460018181018555600094855283852090910191909155838352600290915260409091208351908201918491811061095d5761095d611472565b602090810291909101810151825460018181018555600094855283852090910191909155838352600290915260408220600381018690558101805490919081106109a9576109a9611472565b90600052602060002001549050806001600160a01b031663e1c7392a6040518163ffffffff1660e01b8152600401600060405180830381600087803b1580156109f157600080fd5b505af1158015610a05573d6000803e3d6000fd5b5050505050610a7a565b8360ff1660041415610a7a576000818152600260205260408120805460ff1916600417815583516001909101918491610a4a57610a4a611472565b60209081029190910181015182546001810184556000938452828420015582825260029052604090206003018390555b9392505050565b6004546001600160a01b03163314610aab5760405162461bcd60e51b815260040161021d9061142f565b600054604051639cd05bfd60e01b815261ffff831660048201526001600160a01b0390911690639cd05bfd90602401610253565b600081815260026020526040902060030154610b0d5760405162461bcd60e51b815260040161021d90611488565b6000818152600260205260409020600301544311610b6d5760405162461bcd60e51b815260206004820152601a60248201527f4672616e6b656e737465696e44414f3a20544f4f5f4541524c59000000000000604482015260640161021d565b600054604080516318160ddd60e01b815290516002926001600160a01b0316916318160ddd916004808301926020929190829003018186803b158015610bb257600080fd5b505afa158015610bc6573d6000803e3d6000fd5b505050506040513d601f19601f82011682018060405250810190610bea91906114c9565b610bf4919061152b565b600082815260026020819052604090912001541015610c555760405162461bcd60e51b815260206004820152601c60248201527f4672616e6b656e737465696e44414f3a204e4f545f454c454354454400000000604482015260640161021d565b60008181526002602052604090205460ff16610d0b576000805482825260026020526040822060010180546001600160a01b0390921692639cd05bfd92610c9e57610c9e611472565b6000918252602090912001546040516001600160e01b031960e084901b16815261ffff90911660048201526024015b600060405180830381600087803b158015610ce757600080fd5b505af1158015610cfb573d6000803e3d6000fd5b50505050610d0881611145565b50565b60008181526002602052604090205460ff1660011415610d81576000805482825260026020526040822060010180546001600160a01b039092169263d020aa7392610d5857610d58611472565b90600052602060002001546040518263ffffffff1660e01b8152600401610ccd91815260200190565b60008181526002602081905260409091205460ff161415610dcf576000805482825260026020526040822060010180546001600160a01b039092169263d875927c92610d5857610d58611472565b60008181526002602052604090205460ff16600314156110a0576000818152600260205260408120600190810180549091908110610e0f57610e0f611472565b9060005260206000200154905080600460006101000a8154816001600160a01b0302191690836001600160a01b03160217905550806001600160a01b0316636190c9d56040518163ffffffff1660e01b815260040160206040518083038186803b158015610e7c57600080fd5b505afa158015610e90573d6000803e3d6000fd5b505050506040513d601f19601f82011682018060405250810190610eb491906114c9565b610f4557600082815260026020526040812060010180546001600160a01b03841692636d93c3ba9291610ee957610ee9611472565b90600052602060002001546040518263ffffffff1660e01b8152600401610f1291815260200190565b600060405180830381600087803b158015610f2c57600080fd5b505af1158015610f40573d6000803e3d6000fd5b505050505b806001600160a01b0316636190c9d56040518163ffffffff1660e01b815260040160206040518083038186803b158015610f7e57600080fd5b505afa158015610f92573d6000803e3d6000fd5b505050506040513d601f19601f82011682018060405250810190610fb691906114c9565b816001600160a01b031663dec241186040518163ffffffff1660e01b815260040160206040518083038186803b158015610fef57600080fd5b505afa158015611003573d6000803e3d6000fd5b505050506040513d601f19601f8201168201806040525081019061102791906114c9565b61103191906114f8565b43111561108c57806001600160a01b031663614619546040518163ffffffff1660e01b8152600401600060405180830381600087803b15801561107357600080fd5b505af1158015611087573d6000803e3d6000fd5b505050505b50600480546001600160a01b031916905550565b60008181526002602052604090205460ff1660041415610d085760008181526002602052604081206001908101805490919081106110e0576110e0611472565b90600052602060002001549050806001600160a01b03166383197ef06040518163ffffffff1660e01b8152600401600060405180830381600087803b15801561112857600080fd5b505af115801561113c573d6000803e3d6000fd5b505050506106e5825b6000818152600260205260409020600301546111735760405162461bcd60e51b815260040161021d90611488565b600081815260026020526040812061119091600190910190611293565b6000818152600260205260408120805460ff19168155906111b46001830182611293565b60028201600090556003820160009055505060005b6001548110156106e55781600182815481106111e7576111e7611472565b906000526020600020015414156112815760018054611206919061154d565b8114611256576001805461121b90829061154d565b8154811061122b5761122b611472565b90600052602060002001546001828154811061124957611249611472565b6000918252602090912001555b600180548061126757611267611564565b600190038181906000526020600020016000905590555050565b8061128b81611510565b9150506111c9565b5080546000825590600052602060002090810190610d0891905b808211156112c157600081556001016112ad565b5090565b6000602082840312156112d757600080fd5b5035919050565b600080604083850312156112f157600080fd5b823591506020830135801515811461130857600080fd5b809150509250929050565b634e487b7160e01b600052604160045260246000fd5b60008060006060848603121561133e57600080fd5b833560ff8116811461134f57600080fd5b92506020848101359250604085013567ffffffffffffffff8082111561137457600080fd5b818701915087601f83011261138857600080fd5b81358181111561139a5761139a611313565b8060051b604051601f19603f830116810181811085821117156113bf576113bf611313565b60405291825284820192508381018501918a8311156113dd57600080fd5b938501935b828510156113fb578435845293850193928501926113e2565b8096505050505050509250925092565b60006020828403121561141d57600080fd5b813561ffff81168114610a7a57600080fd5b60208082526023908201527f4672616e6b656e737465696e44414f3a20554e415554484f52495a45445f524f6040820152621093d560ea1b606082015260800190565b634e487b7160e01b600052603260045260246000fd5b60208082526021908201527f4672616e6b656e737465696e44414f3a204e4f5f535543485f50524f504f53416040820152601360fa1b606082015260800190565b6000602082840312156114db57600080fd5b5051919050565b634e487b7160e01b600052601160045260246000fd5b6000821982111561150b5761150b6114e2565b500190565b6000600019821415611524576115246114e2565b5060010190565b60008261154857634e487b7160e01b600052601260045260246000fd5b500490565b60008282101561155f5761155f6114e2565b500390565b634e487b7160e01b600052603160045260246000fdfea26469706673582212207f7b2b9f7a1c50147db438f8787bfdb19d7acb283cc893b0968fc825334071fb64736f6c63430008090033",
  "linkReferences": {},
  "deployedLinkReferences": {}
}