{
  "_format": "hh-sol-artifact-1",
  "contractName": "FrankensteinDAO",
  "sourceName": "contracts/FrankensteinDAO.sol",
  "abi": [
    {
      "inputs": [
        {
          "internalType": "contract IFocusPool",
          "name": "_pool",
          "type": "address"
        }
      ],
      "stateMutability": "nonpayable",
      "type": "constructor"
    },
    {
      "inputs": [
        {
          "internalType": "uint256",
          "name": "porposalId",
          "type": "uint256"
        }
      ],
      "name": "execute",
      "outputs": [],
      "stateMutability": "nonpayable",
      "type": "function"
    },
    {
      "inputs": [
        {
          "internalType": "uint256",
          "name": "proposalId",
          "type": "uint256"
        }
      ],
      "name": "getProposal",
      "outputs": [
        {
          "internalType": "uint8",
          "name": "op",
          "type": "uint8"
        },
        {
          "internalType": "uint256",
          "name": "p0",
          "type": "uint256"
        },
        {
          "internalType": "uint256",
          "name": "p1",
          "type": "uint256"
        },
        {
          "internalType": "uint256",
          "name": "yesVotes",
          "type": "uint256"
        },
        {
          "internalType": "uint256",
          "name": "deadlineBlock",
          "type": "uint256"
        },
        {
          "internalType": "uint256",
          "name": "iVoted",
          "type": "uint256"
        }
      ],
      "stateMutability": "view",
      "type": "function"
    },
    {
      "inputs": [
        {
          "internalType": "uint256",
          "name": "ord",
          "type": "uint256"
        }
      ],
      "name": "getProposalId",
      "outputs": [
        {
          "internalType": "uint256",
          "name": "",
          "type": "uint256"
        }
      ],
      "stateMutability": "view",
      "type": "function"
    },
    {
      "inputs": [],
      "name": "numProposals",
      "outputs": [
        {
          "internalType": "uint256",
          "name": "",
          "type": "uint256"
        }
      ],
      "stateMutability": "view",
      "type": "function"
    },
    {
      "inputs": [],
      "name": "pool",
      "outputs": [
        {
          "internalType": "contract IFocusPool",
          "name": "",
          "type": "address"
        }
      ],
      "stateMutability": "view",
      "type": "function"
    },
    {
      "inputs": [
        {
          "internalType": "uint256",
          "name": "",
          "type": "uint256"
        }
      ],
      "name": "proposalIdList",
      "outputs": [
        {
          "internalType": "uint256",
          "name": "",
          "type": "uint256"
        }
      ],
      "stateMutability": "view",
      "type": "function"
    },
    {
      "inputs": [
        {
          "internalType": "uint8",
          "name": "op",
          "type": "uint8"
        },
        {
          "internalType": "uint256",
          "name": "deadlineBlock",
          "type": "uint256"
        },
        {
          "internalType": "uint256[]",
          "name": "parameters",
          "type": "uint256[]"
        }
      ],
      "name": "propose",
      "outputs": [
        {
          "internalType": "uint256",
          "name": "proposalId",
          "type": "uint256"
        }
      ],
      "stateMutability": "nonpayable",
      "type": "function"
    },
    {
      "inputs": [
        {
          "internalType": "uint256",
          "name": "porposalId",
          "type": "uint256"
        },
        {
          "internalType": "bool",
          "name": "voteYes",
          "type": "bool"
        }
      ],
      "name": "vote",
      "outputs": [],
      "stateMutability": "nonpayable",
      "type": "function"
    }
  ],
  "bytecode": "0x608060405234801561001057600080fd5b5060405161132b38038061132b83398101604081905261002f91610054565b600080546001600160a01b0319166001600160a01b0392909216919091179055610084565b60006020828403121561006657600080fd5b81516001600160a01b038116811461007d57600080fd5b9392505050565b611298806100936000396000f3fe608060405234801561001057600080fd5b50600436106100885760003560e01c8063c7f758a81161005b578063c7f758a8146100f9578063c9d27afe1461013d578063dccc546814610152578063fe0d94c11461016557600080fd5b80631142f15c1461008d57806316f0115b146100b3578063400e3949146100de5780637c95ac27146100e6575b600080fd5b6100a061009b366004611014565b610178565b6040519081526020015b60405180910390f35b6000546100c6906001600160a01b031681565b6040516001600160a01b0390911681526020016100aa565b6001546100a0565b6100a06100f4366004611014565b610199565b61010c610107366004611014565b6101c0565b6040805160ff90971687526020870195909552938501929092526060840152608083015260a082015260c0016100aa565b61015061014b36600461102d565b610299565b005b6100a0610160366004611078565b6105a8565b610150610173366004611014565b610859565b6001818154811061018857600080fd5b600091825260209091200154905081565b6000600182815481106101ae576101ae61115a565b90600052602060002001549050919050565b600081815260026020526040812080546001909101805460ff9092169291829182918291829182906101f4576101f461115a565b90600052602060002001549450600160026000898152602001908152602001600020600101805490501161022957600061025d565b600260008881526020019081526020016000206001016001815481106102515761025161115a565b90600052602060002001545b6000978852600260208181526040808b20928301546003840154338d526004909401909252909920549799969891979196909550909350915050565b6000828152600260205260409020600301546102d05760405162461bcd60e51b81526004016102c790611170565b60405180910390fd5b600080546040516370a0823160e01b81523360048201526001600160a01b03909116906370a082319060240160206040518083038186803b15801561031457600080fd5b505afa158015610328573d6000803e3d6000fd5b505050506040513d601f19601f8201168201806040525081019061034c91906111b1565b116103995760405162461bcd60e51b815260206004820152601d60248201527f4672616e6b656e737465696e44414f3a204e4f545f415f4d454d42455200000060448201526064016102c7565b6000828152600260205260409020600301544311156103fa5760405162461bcd60e51b815260206004820152601960248201527f4672616e6b656e737465696e44414f3a20544f4f5f4c4154450000000000000060448201526064016102c7565b6000828152600260209081526040808320338452600401909152902054156104645760405162461bcd60e51b815260206004820152601e60248201527f4672616e6b656e737465696e44414f3a20414c52454144595f564f544544000060448201526064016102c7565b6000546040516370a0823160e01b81523360048201526001600160a01b03909116906370a082319060240160206040518083038186803b1580156104a757600080fd5b505afa1580156104bb573d6000803e3d6000fd5b505050506040513d601f19601f820116820180604052508101906104df91906111b1565b600083815260026020908152604080832033845260040190915290205580156105a4576000546040516370a0823160e01b81523360048201526001600160a01b03909116906370a082319060240160206040518083038186803b15801561054557600080fd5b505afa158015610559573d6000803e3d6000fd5b505050506040513d601f19601f8201168201806040525081019061057d91906111b1565b6000838152600260208190526040822001805490919061059e9084906111e0565b90915550505b5050565b600080546040516370a0823160e01b815233600482015282916001600160a01b0316906370a082319060240160206040518083038186803b1580156105ec57600080fd5b505afa158015610600573d6000803e3d6000fd5b505050506040513d601f19601f8201168201806040525081019061062491906111b1565b116106715760405162461bcd60e51b815260206004820152601d60248201527f4672616e6b656e737465696e44414f3a204e4f545f415f4d454d42455200000060448201526064016102c7565b60038054906000610681836111f8565b909155506001805480820182556000919091527fb10e2d527612073b26eecdfd717e6a320cf44b4afac2b0732d9fcbe2b7fa0cf601819055905060ff841661071b576000818152600260205260408120835160019091019184916106e7576106e761115a565b6020908102919091018101518254600181018455600093845282842001558282526002905260409020600301839055610852565b8360ff166001141561074b576000818152600260205260408120835160019091019184916106e7576106e761115a565b8360ff166002141561077b576000818152600260205260408120835160019091019184916106e7576106e761115a565b8360ff16600314156107f2576000818152600260205260408120835160019091019184916107ab576107ab61115a565b60209081029190910181015182546001818101855560009485528385209091019190915583835260029091526040909120835190820191849181106106e7576106e761115a565b8360ff1660041415610852576000818152600260205260408120835160019091019184916108225761082261115a565b60209081029190910181015182546001810184556000938452828420015582825260029052604090206003018390555b9392505050565b6000818152600260205260409020600301546108875760405162461bcd60e51b81526004016102c790611170565b60008181526002602052604090206003015443116108e75760405162461bcd60e51b815260206004820152601a60248201527f4672616e6b656e737465696e44414f3a20544f4f5f4541524c5900000000000060448201526064016102c7565b600054604080516318160ddd60e01b815290516002926001600160a01b0316916318160ddd916004808301926020929190829003018186803b15801561092c57600080fd5b505afa158015610940573d6000803e3d6000fd5b505050506040513d601f19601f8201168201806040525081019061096491906111b1565b61096e9190611213565b6000828152600260208190526040909120015410156109cf5760405162461bcd60e51b815260206004820152601c60248201527f4672616e6b656e737465696e44414f3a204e4f545f454c45435445440000000060448201526064016102c7565b60008181526002602052604090205460ff16610a85576000805482825260026020526040822060010180546001600160a01b0390921692639cd05bfd92610a1857610a1861115a565b6000918252602090912001546040516001600160e01b031960e084901b16815261ffff90911660048201526024015b600060405180830381600087803b158015610a6157600080fd5b505af1158015610a75573d6000803e3d6000fd5b50505050610a8281610e93565b50565b60008181526002602052604090205460ff1660011415610afb576000805482825260026020526040822060010180546001600160a01b039092169263d020aa7392610ad257610ad261115a565b90600052602060002001546040518263ffffffff1660e01b8152600401610a4791815260200190565b60008181526002602081905260409091205460ff161415610b49576000805482825260026020526040822060010180546001600160a01b039092169263d875927c92610ad257610ad261115a565b60008181526002602052604090205460ff1660031415610dee576000818152600260205260408120600190810180549091908110610b8957610b8961115a565b90600052602060002001549050806001600160a01b0316636190c9d56040518163ffffffff1660e01b815260040160206040518083038186803b158015610bcf57600080fd5b505afa158015610be3573d6000803e3d6000fd5b505050506040513d601f19601f82011682018060405250810190610c0791906111b1565b610c9857600082815260026020526040812060010180546001600160a01b03841692636d93c3ba9291610c3c57610c3c61115a565b90600052602060002001546040518263ffffffff1660e01b8152600401610c6591815260200190565b600060405180830381600087803b158015610c7f57600080fd5b505af1158015610c93573d6000803e3d6000fd5b505050505b806001600160a01b0316636190c9d56040518163ffffffff1660e01b815260040160206040518083038186803b158015610cd157600080fd5b505afa158015610ce5573d6000803e3d6000fd5b505050506040513d601f19601f82011682018060405250810190610d0991906111b1565b816001600160a01b031663dec241186040518163ffffffff1660e01b815260040160206040518083038186803b158015610d4257600080fd5b505afa158015610d56573d6000803e3d6000fd5b505050506040513d601f19601f82011682018060405250810190610d7a91906111b1565b610d8491906111e0565b4311156105a4576000546040516325b2724960e11b81526001600160a01b03918216600482015290821690634b64e49290602401600060405180830381600087803b158015610dd257600080fd5b505af1158015610de6573d6000803e3d6000fd5b505050505050565b60008181526002602052604090205460ff1660041415610a82576000818152600260205260408120600190810180549091908110610e2e57610e2e61115a565b90600052602060002001549050806001600160a01b03166383197ef06040518163ffffffff1660e01b8152600401600060405180830381600087803b158015610e7657600080fd5b505af1158015610e8a573d6000803e3d6000fd5b505050506105a4825b600081815260026020526040902060030154610ec15760405162461bcd60e51b81526004016102c790611170565b6000818152600260205260408120610ede91600190910190610fe2565b6000818152600260205260408120805460ff1916815590610f026001830182610fe2565b60028201600090556003820160009055505060005b6001548110156105a4578160018281548110610f3557610f3561115a565b90600052602060002001541415610fd05760018054610f549190611235565b811415610fa55760018054610f6a908290611235565b81548110610f7a57610f7a61115a565b906000526020600020015460018281548110610f9857610f9861115a565b6000918252602090912001555b6001805480610fb657610fb661124c565b600190038181906000526020600020016000905590555050565b80610fda816111f8565b915050610f17565b5080546000825590600052602060002090810190610a8291905b808211156110105760008155600101610ffc565b5090565b60006020828403121561102657600080fd5b5035919050565b6000806040838503121561104057600080fd5b823591506020830135801515811461105757600080fd5b809150509250929050565b634e487b7160e01b600052604160045260246000fd5b60008060006060848603121561108d57600080fd5b833560ff8116811461109e57600080fd5b92506020848101359250604085013567ffffffffffffffff808211156110c357600080fd5b818701915087601f8301126110d757600080fd5b8135818111156110e9576110e9611062565b8060051b604051601f19603f8301168101818110858211171561110e5761110e611062565b60405291825284820192508381018501918a83111561112c57600080fd5b938501935b8285101561114a57843584529385019392850192611131565b8096505050505050509250925092565b634e487b7160e01b600052603260045260246000fd5b60208082526021908201527f4672616e6b656e737465696e44414f3a204e4f5f535543485f50524f504f53416040820152601360fa1b606082015260800190565b6000602082840312156111c357600080fd5b5051919050565b634e487b7160e01b600052601160045260246000fd5b600082198211156111f3576111f36111ca565b500190565b600060001982141561120c5761120c6111ca565b5060010190565b60008261123057634e487b7160e01b600052601260045260246000fd5b500490565b600082821015611247576112476111ca565b500390565b634e487b7160e01b600052603160045260246000fdfea2646970667358221220cd4d12a80954231049c82540f80bced0ae223692668826ad7eaf0b2da188424664736f6c63430008090033",
  "linkReferences": {},
  "deployedLinkReferences": {}
}