{
    "_format": "hh-sol-artifact-1",
    "contractName": "MockFocusPool",
    "sourceName": "contracts/MockFocusPool.sol",
    "abi": [
        {
            "inputs": [],
            "stateMutability": "nonpayable",
            "type": "constructor"
        },
        {
            "anonymous": false,
            "inputs": [
                {
                    "indexed": true,
                    "internalType": "address",
                    "name": "owner",
                    "type": "address"
                },
                {
                    "indexed": true,
                    "internalType": "address",
                    "name": "spender",
                    "type": "address"
                },
                {
                    "indexed": false,
                    "internalType": "uint256",
                    "name": "value",
                    "type": "uint256"
                }
            ],
            "name": "Approval",
            "type": "event"
        },
        {
            "anonymous": false,
            "inputs": [
                {
                    "indexed": true,
                    "internalType": "address",
                    "name": "from",
                    "type": "address"
                },
                {
                    "indexed": true,
                    "internalType": "address",
                    "name": "to",
                    "type": "address"
                },
                {
                    "indexed": false,
                    "internalType": "uint256",
                    "name": "value",
                    "type": "uint256"
                }
            ],
            "name": "Transfer",
            "type": "event"
        },
        {
            "inputs": [],
            "name": "DENOM",
            "outputs": [
                {
                    "internalType": "uint256",
                    "name": "",
                    "type": "uint256"
                }
            ],
            "stateMutability": "view",
            "type": "function"
        },
        {
            "inputs": [],
            "name": "MINIMUM_LIQUIDITY",
            "outputs": [
                {
                    "internalType": "uint256",
                    "name": "",
                    "type": "uint256"
                }
            ],
            "stateMutability": "view",
            "type": "function"
        },
        {
            "inputs": [],
            "name": "RANGE_FATOR_MIN",
            "outputs": [
                {
                    "internalType": "uint256",
                    "name": "",
                    "type": "uint256"
                }
            ],
            "stateMutability": "view",
            "type": "function"
        },
        {
            "inputs": [],
            "name": "SQRT_DENOM",
            "outputs": [
                {
                    "internalType": "uint256",
                    "name": "",
                    "type": "uint256"
                }
            ],
            "stateMutability": "view",
            "type": "function"
        },
        {
            "inputs": [],
            "name": "SWAP_FEE_DENOM",
            "outputs": [
                {
                    "internalType": "uint16",
                    "name": "",
                    "type": "uint16"
                }
            ],
            "stateMutability": "view",
            "type": "function"
        },
        {
            "inputs": [
                {
                    "internalType": "address",
                    "name": "owner",
                    "type": "address"
                },
                {
                    "internalType": "address",
                    "name": "spender",
                    "type": "address"
                }
            ],
            "name": "allowance",
            "outputs": [
                {
                    "internalType": "uint256",
                    "name": "",
                    "type": "uint256"
                }
            ],
            "stateMutability": "view",
            "type": "function"
        },
        {
            "inputs": [
                {
                    "internalType": "address",
                    "name": "spender",
                    "type": "address"
                },
                {
                    "internalType": "uint256",
                    "name": "amount",
                    "type": "uint256"
                }
            ],
            "name": "approve",
            "outputs": [
                {
                    "internalType": "bool",
                    "name": "",
                    "type": "bool"
                }
            ],
            "stateMutability": "nonpayable",
            "type": "function"
        },
        {
            "inputs": [
                {
                    "internalType": "address",
                    "name": "account",
                    "type": "address"
                }
            ],
            "name": "balanceOf",
            "outputs": [
                {
                    "internalType": "uint256",
                    "name": "",
                    "type": "uint256"
                }
            ],
            "stateMutability": "view",
            "type": "function"
        },
        {
            "inputs": [
                {
                    "internalType": "uint256",
                    "name": "amount",
                    "type": "uint256"
                }
            ],
            "name": "burn",
            "outputs": [],
            "stateMutability": "nonpayable",
            "type": "function"
        },
        {
            "inputs": [
                {
                    "internalType": "address",
                    "name": "account",
                    "type": "address"
                },
                {
                    "internalType": "uint256",
                    "name": "amount",
                    "type": "uint256"
                }
            ],
            "name": "burnFrom",
            "outputs": [],
            "stateMutability": "nonpayable",
            "type": "function"
        },
        {
            "inputs": [],
            "name": "decimals",
            "outputs": [
                {
                    "internalType": "uint8",
                    "name": "",
                    "type": "uint8"
                }
            ],
            "stateMutability": "view",
            "type": "function"
        },
        {
            "inputs": [
                {
                    "internalType": "address",
                    "name": "spender",
                    "type": "address"
                },
                {
                    "internalType": "uint256",
                    "name": "subtractedValue",
                    "type": "uint256"
                }
            ],
            "name": "decreaseAllowance",
            "outputs": [
                {
                    "internalType": "bool",
                    "name": "",
                    "type": "bool"
                }
            ],
            "stateMutability": "nonpayable",
            "type": "function"
        },
        {
            "inputs": [],
            "name": "getReserves",
            "outputs": [
                {
                    "internalType": "uint112",
                    "name": "_actualReserve0",
                    "type": "uint112"
                },
                {
                    "internalType": "uint112",
                    "name": "_actualReserve1",
                    "type": "uint112"
                },
                {
                    "internalType": "uint112",
                    "name": "_virtualReserve0",
                    "type": "uint112"
                },
                {
                    "internalType": "uint112",
                    "name": "_virtualReserve1",
                    "type": "uint112"
                },
                {
                    "internalType": "uint32",
                    "name": "_blockTimestampLast",
                    "type": "uint32"
                }
            ],
            "stateMutability": "view",
            "type": "function"
        },
        {
            "inputs": [],
            "name": "governance",
            "outputs": [
                {
                    "internalType": "address",
                    "name": "",
                    "type": "address"
                }
            ],
            "stateMutability": "view",
            "type": "function"
        },
        {
            "inputs": [
                {
                    "internalType": "address",
                    "name": "spender",
                    "type": "address"
                },
                {
                    "internalType": "uint256",
                    "name": "addedValue",
                    "type": "uint256"
                }
            ],
            "name": "increaseAllowance",
            "outputs": [
                {
                    "internalType": "bool",
                    "name": "",
                    "type": "bool"
                }
            ],
            "stateMutability": "nonpayable",
            "type": "function"
        },
        {
            "inputs": [
                {
                    "internalType": "address",
                    "name": "lp",
                    "type": "address"
                }
            ],
            "name": "mockLiquidity",
            "outputs": [],
            "stateMutability": "nonpayable",
            "type": "function"
        },
        {
            "inputs": [],
            "name": "name",
            "outputs": [
                {
                    "internalType": "string",
                    "name": "",
                    "type": "string"
                }
            ],
            "stateMutability": "view",
            "type": "function"
        },
        {
            "inputs": [],
            "name": "price0CumulativeLast",
            "outputs": [
                {
                    "internalType": "uint256",
                    "name": "",
                    "type": "uint256"
                }
            ],
            "stateMutability": "view",
            "type": "function"
        },
        {
            "inputs": [],
            "name": "price1CumulativeLast",
            "outputs": [
                {
                    "internalType": "uint256",
                    "name": "",
                    "type": "uint256"
                }
            ],
            "stateMutability": "view",
            "type": "function"
        },
        {
            "inputs": [
                {
                    "internalType": "address",
                    "name": "newGovernance",
                    "type": "address"
                }
            ],
            "name": "setGovernance",
            "outputs": [],
            "stateMutability": "nonpayable",
            "type": "function"
        },
        {
            "inputs": [
                {
                    "internalType": "uint16",
                    "name": "_fee",
                    "type": "uint16"
                }
            ],
            "name": "setSwapFee",
            "outputs": [],
            "stateMutability": "nonpayable",
            "type": "function"
        },
        {
            "inputs": [
                {
                    "internalType": "uint256",
                    "name": "_priceShiftFactor",
                    "type": "uint256"
                }
            ],
            "name": "shiftRange",
            "outputs": [],
            "stateMutability": "nonpayable",
            "type": "function"
        },
        {
            "inputs": [],
            "name": "swapFee",
            "outputs": [
                {
                    "internalType": "uint16",
                    "name": "",
                    "type": "uint16"
                }
            ],
            "stateMutability": "view",
            "type": "function"
        },
        {
            "inputs": [],
            "name": "symbol",
            "outputs": [
                {
                    "internalType": "string",
                    "name": "",
                    "type": "string"
                }
            ],
            "stateMutability": "view",
            "type": "function"
        },
        {
            "inputs": [],
            "name": "token0",
            "outputs": [
                {
                    "internalType": "contract IERC20",
                    "name": "",
                    "type": "address"
                }
            ],
            "stateMutability": "view",
            "type": "function"
        },
        {
            "inputs": [],
            "name": "token1",
            "outputs": [
                {
                    "internalType": "contract IERC20",
                    "name": "",
                    "type": "address"
                }
            ],
            "stateMutability": "view",
            "type": "function"
        },
        {
            "inputs": [],
            "name": "totalSupply",
            "outputs": [
                {
                    "internalType": "uint256",
                    "name": "",
                    "type": "uint256"
                }
            ],
            "stateMutability": "view",
            "type": "function"
        },
        {
            "inputs": [
                {
                    "internalType": "address",
                    "name": "to",
                    "type": "address"
                },
                {
                    "internalType": "uint256",
                    "name": "amount",
                    "type": "uint256"
                }
            ],
            "name": "transfer",
            "outputs": [
                {
                    "internalType": "bool",
                    "name": "",
                    "type": "bool"
                }
            ],
            "stateMutability": "nonpayable",
            "type": "function"
        },
        {
            "inputs": [
                {
                    "internalType": "address",
                    "name": "from",
                    "type": "address"
                },
                {
                    "internalType": "address",
                    "name": "to",
                    "type": "address"
                },
                {
                    "internalType": "uint256",
                    "name": "amount",
                    "type": "uint256"
                }
            ],
            "name": "transferFrom",
            "outputs": [
                {
                    "internalType": "bool",
                    "name": "",
                    "type": "bool"
                }
            ],
            "stateMutability": "nonpayable",
            "type": "function"
        },
        {
            "inputs": [
                {
                    "internalType": "uint256",
                    "name": "_priceZoomFactor",
                    "type": "uint256"
                }
            ],
            "name": "zoomRange",
            "outputs": [],
            "stateMutability": "nonpayable",
            "type": "function"
        }
    ],
    "bytecode": "0x60806040523480156200001157600080fd5b506040518060400160405280600f81526020016e466f637573204c697175696469747960881b815250604051806040016040528060038152602001620464c560ec1b81525069d3c21bcecceda100000033838381600390805190602001906200007c929190620001f2565b50805162000092906004906020840190620001f2565b505050620000a781836200010a60201b60201c565b505060088054750de0b6b3a76400000000000000000de0b6b3a76400006001600160e01b0319918216811790925560078054909116909117905550506005805461ffff1916612710179055600b80546001600160a01b03191633179055620002fc565b6001600160a01b038216620001655760405162461bcd60e51b815260206004820152601f60248201527f45524332303a206d696e7420746f20746865207a65726f206164647265737300604482015260640160405180910390fd5b806002600082825462000179919062000298565b90915550506001600160a01b03821660009081526020819052604081208054839290620001a890849062000298565b90915550506040518181526001600160a01b038316906000907fddf252ad1be2c89b69c2b068fc378daa952ba7f163c4a11628f55a4df523b3ef9060200160405180910390a35050565b8280546200020090620002bf565b90600052602060002090601f0160209004810192826200022457600085556200026f565b82601f106200023f57805160ff19168380011785556200026f565b828001600101855582156200026f579182015b828111156200026f57825182559160200191906001019062000252565b506200027d92915062000281565b5090565b5b808211156200027d576000815560010162000282565b60008219821115620002ba57634e487b7160e01b600052601160045260246000fd5b500190565b600181811c90821680620002d457607f821691505b60208210811415620002f657634e487b7160e01b600052602260045260246000fd5b50919050565b611152806200030c6000396000f3fe608060405234801561001057600080fd5b50600436106101da5760003560e01c80635a3d549311610104578063a9059cbb116100a2578063d21220a711610071578063d21220a71461042b578063d875927c1461043e578063dc6b175a14610451578063dd62ed3e1461045c57600080fd5b8063a9059cbb146103e9578063ab033ea9146103fc578063ba9a7a561461040f578063d020aa731461041857600080fd5b806379cc6790116100de57806379cc6790146103a857806395d89b41146103bb5780639cd05bfd146103c3578063a457c2d7146103d657600080fd5b80635a3d5493146103635780635aa6e6751461036c57806370a082311461037f57600080fd5b806318160ddd1161017c578063395093511161014b578063395093511461032657806342966c681461033957806354cf2aeb1461034c5780635909c0d51461035a57600080fd5b806318160ddd146102e057806321a43a81146102e857806323b872dd14610304578063313ce5671461031757600080fd5b8063095ea7b3116101b8578063095ea7b3146102675780630dfe16811461028a578063151005ae146102bb57806316343da4146102d157600080fd5b806303b1fb0a146101df57806306fdde03146101f45780630902f1ac14610212575b600080fd5b6101f26101ed366004610ee4565b610495565b005b6101fc6104aa565b6040516102099190610f06565b60405180910390f35b600854600754604080516001600160701b038084168252600160701b938490048116602083015280851692820192909252918304166060820152600160e01b90910463ffffffff16608082015260a001610209565b61027a610275366004610f5b565b61053c565b6040519015158152602001610209565b6005546102a3906201000090046001600160a01b031681565b6040516001600160a01b039091168152602001610209565b6102c3603281565b604051908152602001610209565b6102c3670de0b6b3a764000081565b6002546102c3565b6102f161271081565b60405161ffff9091168152602001610209565b61027a610312366004610f85565b610554565b60405160128152602001610209565b61027a610334366004610f5b565b610578565b6101f2610347366004610fc1565b6105b7565b6005546102f19061ffff1681565b6102c360095481565b6102c3600a5481565b600b546102a3906001600160a01b031681565b6102c361038d366004610ee4565b6001600160a01b031660009081526020819052604090205490565b6101f26103b6366004610f5b565b6105c1565b6101fc6105da565b6101f26103d1366004610fda565b6105e9565b61027a6103e4366004610f5b565b610634565b61027a6103f7366004610f5b565b6106c6565b6101f261040a366004610ee4565b6106d4565b6102c36103e881565b6101f2610426366004610fc1565b610720565b6006546102a3906001600160a01b031681565b6101f261044c366004610fc1565b6107fe565b6102c3633b9aca0081565b6102c361046a366004610ffe565b6001600160a01b03918216600090815260016020908152604080832093909416825291909152205490565b6104a781670de0b6b3a764000061091e565b50565b6060600380546104b990611031565b80601f01602080910402602001604051908101604052809291908181526020018280546104e590611031565b80156105325780601f1061050757610100808354040283529160200191610532565b820191906000526020600020905b81548152906001019060200180831161051557829003601f168201915b5050505050905090565b60003361054a8185856109fd565b5060019392505050565b600033610562858285610b22565b61056d858585610bb4565b506001949350505050565b3360008181526001602090815260408083206001600160a01b038716845290915281205490919061054a90829086906105b2908790611082565b6109fd565b6104a73382610d82565b6105cc823383610b22565b6105d68282610d82565b5050565b6060600480546104b990611031565b600b546001600160a01b0316331461061c5760405162461bcd60e51b81526004016106139061109a565b60405180910390fd5b6005805461ffff191661ffff92909216919091179055565b3360008181526001602090815260408083206001600160a01b0387168452909152812054909190838110156106b95760405162461bcd60e51b815260206004820152602560248201527f45524332303a2064656372656173656420616c6c6f77616e63652062656c6f77604482015264207a65726f60d81b6064820152608401610613565b61056d82868684036109fd565b60003361054a818585610bb4565b600b546001600160a01b031633146106fe5760405162461bcd60e51b81526004016106139061109a565b600b80546001600160a01b0319166001600160a01b0392909216919091179055565b600b546001600160a01b0316331461074a5760405162461bcd60e51b81526004016106139061109a565b600854600090670de0b6b3a764000090610775908490600160701b90046001600160701b03166110c4565b61077f91906110e3565b90506001600160701b038111156107ca5760405162461bcd60e51b815260206004820152600f60248201526e466f6375733a204f564552464c4f5760881b6044820152606401610613565b600880546001600160701b03909216600160701b026dffffffffffffffffffffffffffff60701b1990921691909117905550565b600b546001600160a01b031633146108285760405162461bcd60e51b81526004016106139061109a565b600854600090670de0b6b3a76400009061084c9084906001600160701b03166110c4565b61085691906110e3565b600854909150600090670de0b6b3a764000090610884908590600160701b90046001600160701b03166110c4565b61088e91906110e3565b90506001600160701b0382118015906108ae57506001600160701b038111155b6108ec5760405162461bcd60e51b815260206004820152600f60248201526e466f6375733a204f564552464c4f5760881b6044820152606401610613565b600880546001600160701b03928316600160701b026001600160e01b0319909116929093169190911791909117905550565b6001600160a01b0382166109745760405162461bcd60e51b815260206004820152601f60248201527f45524332303a206d696e7420746f20746865207a65726f2061646472657373006044820152606401610613565b80600260008282546109869190611082565b90915550506001600160a01b038216600090815260208190526040812080548392906109b3908490611082565b90915550506040518181526001600160a01b038316906000907fddf252ad1be2c89b69c2b068fc378daa952ba7f163c4a11628f55a4df523b3ef9060200160405180910390a35050565b6001600160a01b038316610a5f5760405162461bcd60e51b8152602060048201526024808201527f45524332303a20617070726f76652066726f6d20746865207a65726f206164646044820152637265737360e01b6064820152608401610613565b6001600160a01b038216610ac05760405162461bcd60e51b815260206004820152602260248201527f45524332303a20617070726f766520746f20746865207a65726f206164647265604482015261737360f01b6064820152608401610613565b6001600160a01b0383811660008181526001602090815260408083209487168084529482529182902085905590518481527f8c5be1e5ebec7d5bd14f71427d1e84f3dd0314c0f7b2291e5b200ac8c7c3b92591015b60405180910390a3505050565b6001600160a01b038381166000908152600160209081526040808320938616835292905220546000198114610bae5781811015610ba15760405162461bcd60e51b815260206004820152601d60248201527f45524332303a20696e73756666696369656e7420616c6c6f77616e63650000006044820152606401610613565b610bae84848484036109fd565b50505050565b6001600160a01b038316610c185760405162461bcd60e51b815260206004820152602560248201527f45524332303a207472616e736665722066726f6d20746865207a65726f206164604482015264647265737360d81b6064820152608401610613565b6001600160a01b038216610c7a5760405162461bcd60e51b815260206004820152602360248201527f45524332303a207472616e7366657220746f20746865207a65726f206164647260448201526265737360e81b6064820152608401610613565b6001600160a01b03831660009081526020819052604090205481811015610cf25760405162461bcd60e51b815260206004820152602660248201527f45524332303a207472616e7366657220616d6f756e7420657863656564732062604482015265616c616e636560d01b6064820152608401610613565b6001600160a01b03808516600090815260208190526040808220858503905591851681529081208054849290610d29908490611082565b92505081905550826001600160a01b0316846001600160a01b03167fddf252ad1be2c89b69c2b068fc378daa952ba7f163c4a11628f55a4df523b3ef84604051610d7591815260200190565b60405180910390a3610bae565b6001600160a01b038216610de25760405162461bcd60e51b815260206004820152602160248201527f45524332303a206275726e2066726f6d20746865207a65726f206164647265736044820152607360f81b6064820152608401610613565b6001600160a01b03821660009081526020819052604090205481811015610e565760405162461bcd60e51b815260206004820152602260248201527f45524332303a206275726e20616d6f756e7420657863656564732062616c616e604482015261636560f01b6064820152608401610613565b6001600160a01b0383166000908152602081905260408120838303905560028054849290610e85908490611105565b90915550506040518281526000906001600160a01b038516907fddf252ad1be2c89b69c2b068fc378daa952ba7f163c4a11628f55a4df523b3ef90602001610b15565b80356001600160a01b0381168114610edf57600080fd5b919050565b600060208284031215610ef657600080fd5b610eff82610ec8565b9392505050565b600060208083528351808285015260005b81811015610f3357858101830151858201604001528201610f17565b81811115610f45576000604083870101525b50601f01601f1916929092016040019392505050565b60008060408385031215610f6e57600080fd5b610f7783610ec8565b946020939093013593505050565b600080600060608486031215610f9a57600080fd5b610fa384610ec8565b9250610fb160208501610ec8565b9150604084013590509250925092565b600060208284031215610fd357600080fd5b5035919050565b600060208284031215610fec57600080fd5b813561ffff81168114610eff57600080fd5b6000806040838503121561101157600080fd5b61101a83610ec8565b915061102860208401610ec8565b90509250929050565b600181811c9082168061104557607f821691505b6020821081141561106657634e487b7160e01b600052602260045260246000fd5b50919050565b634e487b7160e01b600052601160045260246000fd5b600082198211156110955761109561106c565b500190565b60208082526010908201526f2337b1bab99d102327a92124a22222a760811b604082015260600190565b60008160001904831182151516156110de576110de61106c565b500290565b60008261110057634e487b7160e01b600052601260045260246000fd5b500490565b6000828210156111175761111761106c565b50039056fea264697066735822122054ac5a19858d40302d7096f5b9e16c1e7f52eeed7e6d3c64705165bf05920cc164736f6c63430008090033",
    "linkReferences": {},
    "deployedLinkReferences": {}
}