{
  "_format": "hh-sol-artifact-1",
  "contractName": "MockRobot",
  "sourceName": "contracts/MockRobot.sol",
  "abi": [
    {
      "inputs": [],
      "name": "DENOM",
      "outputs": [
        {
          "internalType": "uint256",
          "name": "",
          "type": "uint256"
        }
      ],
      "stateMutability": "view",
      "type": "function"
    },
    {
      "inputs": [],
      "name": "cycle",
      "outputs": [
        {
          "internalType": "uint256",
          "name": "",
          "type": "uint256"
        }
      ],
      "stateMutability": "view",
      "type": "function"
    },
    {
      "inputs": [],
      "name": "destroy",
      "outputs": [],
      "stateMutability": "nonpayable",
      "type": "function"
    },
    {
      "inputs": [],
      "name": "execute",
      "outputs": [],
      "stateMutability": "nonpayable",
      "type": "function"
    },
    {
      "inputs": [],
      "name": "init",
      "outputs": [],
      "stateMutability": "nonpayable",
      "type": "function"
    },
    {
      "inputs": [],
      "name": "lastCallBlock",
      "outputs": [
        {
          "internalType": "uint256",
          "name": "",
          "type": "uint256"
        }
      ],
      "stateMutability": "view",
      "type": "function"
    },
    {
      "inputs": [
        {
          "internalType": "uint256",
          "name": "_cycle",
          "type": "uint256"
        }
      ],
      "name": "setCycle",
      "outputs": [],
      "stateMutability": "nonpayable",
      "type": "function"
    }
  ],
  "bytecode": "0x608060405234801561001057600080fd5b5061036c806100206000396000f3fe608060405234801561001057600080fd5b506004361061007d5760003560e01c80636d93c3ba1161005b5780636d93c3ba146100b657806383197ef0146100c9578063dec24118146100d1578063e1c7392a146100da57600080fd5b806316343da41461008257806361461954146100a35780636190c9d5146100ad575b600080fd5b610091670de0b6b3a764000081565b60405190815260200160405180910390f35b6100ab6100f1565b005b61009160015481565b6100ab6100c43660046102a2565b6101f5565b6100ab610274565b61009160005481565b6100ab600280546001600160a01b03191633179055565b6002546001600160a01b031633146101245760405162461bcd60e51b815260040161011b906102bb565b60405180910390fd5b60015460005461013491906102ff565b43116101785760405162461bcd60e51b815260206004820152601360248201527226b7b1b5a937b137ba1d102a27a7afa9a7a7a760691b604482015260640161011b565b43600055600280546001600160a01b0316906391f43c5c906101a390670de0b6b3a764000090610317565b6040518263ffffffff1660e01b81526004016101c191815260200190565b600060405180830381600087803b1580156101db57600080fd5b505af11580156101ef573d6000803e3d6000fd5b50505050565b6002546001600160a01b0316331461021f5760405162461bcd60e51b815260040161011b906102bb565b6000811161026f5760405162461bcd60e51b815260206004820152601760248201527f4d6f636b526f626f743a20544f4f5f4652455155454e54000000000000000000604482015260640161011b565b600155565b6002546001600160a01b0316331461029e5760405162461bcd60e51b815260040161011b906102bb565b6000ff5b6000602082840312156102b457600080fd5b5035919050565b60208082526014908201527326b7b1b5a937b137ba1d102327a92124a22222a760611b604082015260600190565b634e487b7160e01b600052601160045260246000fd5b60008219821115610312576103126102e9565b500190565b6000816000190483118215151615610331576103316102e9565b50029056fea264697066735822122086b1f831b176c2ea4b32d15235e2df6d67212154a5c70b20c6b4cf8298c5ce2664736f6c63430008090033",
  "linkReferences": {},
  "deployedLinkReferences": {}
}