{
    "_format": "hh-sol-artifact-1",
    "contractName": "MockRobot",
    "sourceName": "contracts/MockRobot.sol",
    "abi": [
        {
            "inputs": [],
            "name": "DENOM",
            "outputs": [
                {
                    "internalType": "uint256",
                    "name": "",
                    "type": "uint256"
                }
            ],
            "stateMutability": "view",
            "type": "function"
        },
        {
            "inputs": [],
            "name": "cycle",
            "outputs": [
                {
                    "internalType": "uint256",
                    "name": "",
                    "type": "uint256"
                }
            ],
            "stateMutability": "view",
            "type": "function"
        },
        {
            "inputs": [],
            "name": "destroy",
            "outputs": [],
            "stateMutability": "nonpayable",
            "type": "function"
        },
        {
            "inputs": [
                {
                    "internalType": "contract IFocusPool",
                    "name": "pool",
                    "type": "address"
                }
            ],
            "name": "execute",
            "outputs": [],
            "stateMutability": "nonpayable",
            "type": "function"
        },
        {
            "inputs": [],
            "name": "lastCallBlock",
            "outputs": [
                {
                    "internalType": "uint256",
                    "name": "",
                    "type": "uint256"
                }
            ],
            "stateMutability": "view",
            "type": "function"
        },
        {
            "inputs": [
                {
                    "internalType": "uint256",
                    "name": "_cycle",
                    "type": "uint256"
                }
            ],
            "name": "setCycle",
            "outputs": [],
            "stateMutability": "nonpayable",
            "type": "function"
        }
    ],
    "bytecode": "0x608060405234801561001057600080fd5b506102bc806100206000396000f3fe608060405234801561001057600080fd5b50600436106100625760003560e01c806316343da4146100675780634b64e492146100885780636190c9d51461009d5780636d93c3ba146100a657806383197ef0146100b9578063dec24118146100c0575b600080fd5b610076670de0b6b3a764000081565b60405190815260200160405180910390f35b61009b6100963660046101f0565b6100c9565b005b61007660015481565b61009b6100b4366004610220565b61019b565b61009b6000ff5b61007660005481565b6001546000546100d9919061024f565b43116101225760405162461bcd60e51b815260206004820152601360248201527226b7b1b5a937b137ba1d102a27a7afa9a7a7a760691b60448201526064015b60405180910390fd5b436000556001600160a01b03811663d875927c610148670de0b6b3a76400006002610267565b6040518263ffffffff1660e01b815260040161016691815260200190565b600060405180830381600087803b15801561018057600080fd5b505af1158015610194573d6000803e3d6000fd5b5050505050565b600081116101eb5760405162461bcd60e51b815260206004820152601760248201527f4d6f636b526f626f743a20544f4f5f4652455155454e540000000000000000006044820152606401610119565b600155565b60006020828403121561020257600080fd5b81356001600160a01b038116811461021957600080fd5b9392505050565b60006020828403121561023257600080fd5b5035919050565b634e487b7160e01b600052601160045260246000fd5b6000821982111561026257610262610239565b500190565b600081600019048311821515161561028157610281610239565b50029056fea26469706673582212200046e104fae131c47da5e9e97207cf8db66a0533c776c1e558b9b36559ad5f7564736f6c63430008090033",
    "linkReferences": {},
    "deployedLinkReferences": {}
}